:020000040000FA
:0600000001308A00812995
:020008002028AE
:04000A00003400348A
:100040000130A3008B1009000A30002208002F089D
:10005000B000831603138C018312031397018312DC
:1000600003139101831203138801831603131830BD
:100070009200831203130C30970083120313003095
:100080009500831203130C118312031305309200A1
:100090008316031312309D00831203138C1C4E2809
:1000A0000030B700AE000130A5000800251C272055
:1000B000231875202B08AC00A7000022831203131D
:1000C0002C089500AC0329082C06031D5C28290880
:1000D000AD00A7000022831203132D089500AD0A7E
:1000E0002B082D06031D69280800831203138B13A8
:1000F000831603138C0183120313970183120313D6
:100100009101831203139501831203139501831246
:100110000313403088001C22A60026180530A618BC
:100120000A3026190F30A6191430A7001C22A80087
:1001300028180130A818023028190430A8190830EE
:10014000A9001C22AA002A181030AA1812302A1955
:100150001430AA191830AB00831203138801003041
:10016000A300A500831203138B108B1708008316BE
:1001700003138C018312031397018312031391015C
:100180008312031395018312031395010030B70006
:10019000A5000130AE0008002E1CB7200310351C4E
:1001A000D2280729361CD728EC283008AF003108A0
:1001B0008800B10D0030B600231819219F149F1834
:1001C000DF281E08C039803A031DD72933080022D2
:1001D000AF0BD7280830AF003008AF0031088800D7
:1001E000B10C0130B600231819219F149F18F6286E
:1001F0001E08C039803A031DD72933080022AF0BEF
:10020000EC28831203130130B1000310D729083002
:10021000AF0031088800B10D2318192133080022DE
:10022000AF0B0929831203130130B1000310D72942
:100230000800831203138B1383120313803088008A
:100240001C22B20032180A30B2183230321964302F
:10025000B219FF30B3001C22B40034180030B418B7
:10026000003034190130B4190130B5008312031382
:100270000030A300831203138B108B17080039087A
:10028000B8060800831603138C0183120313970129
:100290008312031391018312031395018312031335
:1002A00095010030A500AE000130B7000800371CF2
:1002B00042212318652138088800BC003B08002231
:1002C0000310B80C3C183F210800831203138B1352
:1002D00083120313C03088001C22BA003A180A3077
:1002E000BA1832303A196430BA19FF30BB00003006
:1002F000A300831203138801831203138B108B173F
:1003000008000000850186018701880189018316A4
:10031000031789010130880083160313013085001B
:1003200001308600003087008801F830890001081C
:10033000083981009F018312031341309F00FF3071
:100340008800033005228801033005228316031339
:100350000030880083160313061483160313011755
:10036000831203138B170B168316031300309F00A1
:10037000831603130514831603170814831203133B
:1003800041309F0024200530A9001E30AB00FF3013
:10039000A700FF30B3000030B50083120313013013
:1003A000B100FF30BB000130B800B830B900000028
:1003B0009F149F18D9291E08C039A4002408003AA8
:1003C000031DE4295620D7292408803A031DEA2971
:1003D000CC20D7292408C03A031DD7295721D72973
:1003E0001F30BD00BD0BF229000000000800F830EE
:1003F000BD000000BD0BF92900000000000008004E
:10040000BE00F721BE0B012A0800BF0064300022A5
:10041000BF0B062A08009F149F1C0C2A1E08080008
:1004200006080139C00014300022060801394006D0
:10043000031D102A400808000808C200880142086D
:10044000C039880008160B22C039C100C11B302AF0
:10045000411B2D2A08140130372A88140230372A0C
:10046000411B352A08150430372A88150830C10089
:10047000102206181E2A8801033005224108880030
:100480000430052288010330052242088800410813
:1004900008000808C20088014208C0398800081610
:1004A0000B22C039C1000310C10CC10CC10CC10C1E
:1004B000C10CC10C0808FC39410488001022061840
:1004C0004B2A8801033005224108880004300522A8
:0E04D000880103300522420888004108080018
:02400E00A4000C
:02401000FF3E71
:00000001FF
